{
  "contractName": "PolToken",
  "abi": [
    {
      "constant": true,
      "inputs": [],
      "name": "totalSupply",
      "outputs": [
        {
          "name": "",
          "type": "uint256"
        }
      ],
      "payable": false,
      "stateMutability": "view",
      "type": "function"
    },
    {
      "inputs": [],
      "payable": false,
      "stateMutability": "nonpayable",
      "type": "constructor"
    }
  ],
  "bytecode": "0x608060405234801561001057600080fd5b50620f4240600081905550609e806100296000396000f300608060405260043610603f576000357c0100000000000000000000000000000000000000000000000000000000900463ffffffff16806318160ddd146044575b600080fd5b348015604f57600080fd5b506056606c565b6040518082815260200191505060405180910390f35b600054815600a165627a7a72305820e49d85a3258b8465c6b12ed2b24701042619c73832200c26be43e2c5a4633f0e0029",
  "source": "pragma solidity ^0.4.2;\r\n\r\n/**\r\n * The PolToken contract does this and that...\r\n */\r\ncontract PolToken {\r\n\r\n    uint256 public totalSupply;\r\n\r\n\tfunction PolToken () public {\r\n\t\ttotalSupply = 1000000;\r\n\t}\t\r\n}\r\n\r\n",
  "sourcePath": "C:\\Users\\breezil\\Desktop\\DApp\\PolCoin\\contracts\\PolToken.sol",
  "compiler": {
    "name": "solc",
    "version": "0.4.23+commit.124ca40d.Emscripten.clang"
  },
  "schemaVersion": "2.0.0",
  "updatedAt": "2018-06-03T21:18:34.002Z"
}